:04005E00003C96FAD2
:100CAC00015F00014D00012A000162000264000096
:100CBC00022B0000016700C103C100C101015E00ED
:100CCC0001280001630002600000012902012100DB
:040CDC0002220000F0
:060D000090FEB1F07FFA45
:100D0600AE071FEE600A7E237D08DDFEDEFC80F066
:010D160022BA
:080D750000007E09DEFEDFF83C
:010D7D002253
:080D590090FEB1F0C291C295B9
:060D61000000000000226A
:100CE100EF44C0F5BC7FFFAE071FEE6006E5BC54C4
:0E0CF1002060F453BCDFAFBDEFFEADBEEDFFE3
:010CFF0022D2
:100AEF00E4FFFEAC2DAD2E8C098D0AFBEBC39410E9
:100AFF00748094805046EB25E0242DF8E6F58308AA
:100B0F00E6F5822FFFE5833EFEC3E582950AE58376
:100B1F009509400DEB25E0242DF8E6F50908E6F5DB
:100B2F000AEB25E0242DF8E6F58308E6F582D39D40
:100B3F00E5839C5004AC83AD820B80B0E50A2DFD9C
:100B4F00E5093CFCC3EF9DFFEE9CFE7C007D0E0291
:020B5F0004840C
:10082400E55E146020146031146044146055146053
:100834007C240560030208BEE4120D5904F0D2932F
:1008440075BC8D806390FEB17401F0C291C29312A5
:100854000D61D29575BC8C805E90FEB1E4F0C291BE
:10086400C293120D617404F0D29575BC8B803990DB
:10087400FEB17404F0C293C295120D61D29175BC9D
:100884008D803490FEB1E4F0C293C295120D617470
:1008940010F0D2917F0A120CE1E56225E0242DF8D4
:1008A400A60608A60775BC8C75E69C800D7410120C
:1008B4000D59D29375BC8B75E6AC30030375E68C89
:0108C4002211
:1009EC0075E68C75660A90FED6E566F090FED8F03A
:1009FC0090FEDAF0E4F55E7BC8FA1208247F6412EC
:100A0C000D06E4FDFCC3ED9BEC9A500C7F64120DBB
:100A1C00750DBD00010C80ED055EE55E75F006847C
:100A2C0085F05E05660566D3E5669428748094802F
:100A3C00400375662890FED6E566F090FED8F090DF
:100A4C00FEDAF01208247C007D0FAF03AE02120414
:100A5C0084EF2401FFE43EFEC3EB9FFBEA9EFAC346
:080A6C00EB9419EA9400509A82
:010A7400225F
:10008600C200E4F567F56675E68C90FEB1F090FE69
:10009600D6F090FED8F090FEDAF0C291C293C295E7
:0100A6002237
:100C1800E55F1460111460251460392403703D20C9
:100C2800B73A755F012220B70D054DE54D64647034
:100C38002B752A02801A755F02E4F54D2230B70D34
:100C4800054DE54D640F7014752A018003752A045B
:0D0C5800755F032230B705E4F55FF54D220E
:100066007592FFE4F5917590C0F5B275B17C75B0E7
:0A0076008175CA10F5C975C8102283
:100D290075BC8D75DE2143BA8090FEA87434F0221B
:1008C50043BA80C290C291C292C293C294C295901B
:1008D500FED0E4F0A37403F090FEDE7418F090FEF1
:1008E500D2E4F0A374FFF090FECCE4F0A3F090FE08
:1008F500C5F0A3F090FEB1F0A3F090FEC4F090FE19
:10090500C87468F090FED5E4F0A3F090FECCE04406
:1009150005F090FEB2E0F090FEC97468F090FED745
:10092500E4F0A3F090FECCE04450F090FEB2E0F08D
:1009350090FECA7468F090FED9E4F0A3F090FECD65
:10094500E04405F090FEB2E0F090FEDD7480F0909A
:0B095500FEC004F090FEC77401F02209
:0700030075E68C75E73C2255
:100D3900538E7F5389F0E4F58AF58CC28DD2A922AE
:100D1700538EBF53890FE4F58BF58DC28FD2ABD2BB
:020D27008E221A
:100D4900538EFB75D71175D68E43AF04438E10228F
:03000B00020B6184
:100B6100C0E0C083C082C0D075D000C000C002C048
:100B710003C005C006C007C28CE528FB7A006401EA
:100B81007023752802300013055EC3E55E94067478
:100B91008094804003755E00120824758CFF758A6D
:100BA100B0D28C8008EB64024A7002F528D007D0DD
:100BB10006D005D003D002D000D0D0D082D083D0CF
:020BC100E03220
:03001B00020018C8
:03001800D20132E0
:03006300020D6724
:0E0D6700C0E0C0D0D202120C18D0D0D0E032C2
:0300AB0002073F0A
:10073F00C0E0C0D075D000C000C002C004C005C06A
:03074F0006C007DA
:1007520053E6BFE5286003020813C28E300104C2CB
:1007620001801BAF8DEFFEAD8B7C00E42DFFEC3ED4
:10077200C313FCEF13FDC39440EC941F40047C1F91
:100782007D40758D00758B00D28EE52125E0244ECB
:10079200F8A60408A6050521E5215407F5217C00E9
:1007A2007D00E4FFEFC39408748094805012EF251B
:1007B200E0244EF8E6FA08E62DFDEA3CFC0F80E460
:1007C200ECC4F854F0C868FCEDC4540F48FDC3945F
:1007D20028EC9400400CD3ED94E8EC94035003759C
:1007E2006300C3ED9450EC9400400A74D82DFD745C
:1007F200FF3CFC80047C007D14C28CED25E0FDEC06
:1008020033FCC3E49DFDE49CF58C8D8AD28C752863
:0108120001E4
:10081300D007D006D005D004D002D000D0D0D0E08D
:0108230032A2
:03005B0002000A96
:01000A0032C3
:0300830002000E6A
:0A000E004329104329015329FB3256
:100A750090FED0E4F0A37410F090FED67428F0D266
:100A8500937401120D0090FED6E4F0C2937F3212EA
:100A95000D0690FED0E4F0A3740EF090FED87428F5
:100AA500F0D2957404120D0090FED8E4F0C2957F43
:100AB50032120D0690FED0E4F0A3740CF090FEDA2D
:100AC5007428F0D29190FEB17410F07FFA120D06E1
:100AD50090FEDAE4F0C2917F32120D0690FEB1E489
:0A0AE500F090FED0F0A37403F0229D
:10001E0090FED0E4F0A37410F090FED67428F0D2C7
:10002E009390FEB17401F07F64120D06E4F07F64CC
:10003E00120D067401F07F64120D06E4F090FED6E8
:0C004E00F0C29390FED0F0A37403F022E7
:100C6500E52A6042E4F560F561E52A24FE60262464
:100C7500FE602D2403702CE52930E30512001E804B
:100C8500220567E56764017002D203E567640470B5
:100C950012F567800B1200865329FB432901800357
:070CA500120086E4F52A228B
:100BC3000523E52370020522646445227004F5229F
:100BD300F523E52930E307D297D2CCC29622E52943
:100BE30030E231E5677004C2978025E56775F0143C
:100BF300A4240AFFE435F0FEC3E5239FE5229E50BB
:100C03000FAE22AF237C007D0A120484EF13929768
:040C1300D2CCD296D7
:010C170022BA
:1004E7001200661208C5120D29120003120D3912E7
:1004F7000D17120D49438F20D2AFE52920E20302E1
:10050700069A200203020697C202300059E5679057
:10051700005E93FCE41203CF7BCD7ACC79CC783D97
:100527001201A6C004C005C006C007AC66E41203EA
:10053700CF7466FBFAF9783F1201A6D003D002D038
:1005470001D0001200B51204038F6690FED6E5664F
:10055700F090FED8F090FEDAF00563E56364507022
:100567005C1200868057300343C203E4FFEFC39455
:100577000874809480500EEF25E0244EF876010829
:1005870076900F80E81209ECC203E4F52853E6BF22
:10059700E55E30E00575E6AC800375E69CD2007F2A
:1005A700FA120D067FFA120D06E4F5637F0A120CA4
:1005B700E1E56225E0242DF8A60608A607E56770A1
:1005C700067E0B7FB880047E757F300561E561701C
:1005D700020560B50713E560B5060EE4F560F56141
:1005E7001200865329FB4329010562E56264106006
:1005F70003020694F562120AEFAC06AD07E4120394
:10060700CAE4FBFA79A0783B1201A67B667A667981
:1006170016783F1202AF8F278E268D258C24E52969
:10062700540870367FCD7ECC7DCC7C40AB27AA2684
:10063700A925A82412034C504F052CE52C70020560
:100647002B6440452B7046F52BF52CC2961200867D
:10065700432908E4F564F56580337FCD7ECC7DCCF6
:100667007C40AB27AA26A925A82412034C60194071
:1006770017052CE52C7002052B6420452B700EF511
:100687002BF52C5329F78005E4F52BF52C120BC31A
:10069700120C65E52930E02DD297D2CCD29620B73F
:1006A7000F7FC8120D067FC8120D067FC8120D06F0
:1006B700C2B1538FBFE4F5BCF5E653AFFB758702B4
:0D06C700000075C760E52920E10302050170
:1006D400E4F50820B71F7FC8120D06C2CC7FC812EC
:1006E4000D06D2CC0508D3E50894037480948040A9
:1006F400E2C29780DED3E508940374809480402F8F
:100704005329FE43290220B007C2B1432910802295
:1007140075E68C75BC80438F40D2B143AF04C29759
:10072400E4F55FF54DF52A120A7543290480065352
:0807340029FD4329015329FDB1
:03073C00020501B2
:1000AE0002046FE86480F8E933E83360110460F00D
:1000BE00ED33EC337009E8FCE9FDEAFEEBFF2204B8
:1000CE0060DED3EB9FEA9EE99DE8C2E78CF0C2F7B3
:1000DE0095F0400CE8CCF8E9CDF9EACEFAEBCFFB7F
:1000EE0012043A85D0F05804700320D5B3E804709A
:1000FE00075002B2D502047992D5EC0460F7E4CC35
:10010E00C0E0C398F8603B94186008400DD0E0FB47
:10011E00020451E4FBFAC9FC8028E830E406E4C985
:10012E00FBE4CAFCE830E305E4C9CACBFCE854079B
:10013E006010F8C3E913F9EA13FAEB13FBEC13FCA6
:10014E00D8F130F52FC3E49CFCEF9BFFEE9AFEED49
:10015E0099FDD0E0FBEF4E4D4C701222DB030204F2
:10016E0076EC2CFCEF33FFEE33FEED33FDED30E796
:10017E00EB020451EF2BFFEE3AFEED39FDD0E0FB22
:10018E0050130BBB0003020479ED13FDEE13FEEFCB
:08019E0013FFEC13FC020451F5
:1001A600EC4D6011E8497017ED33EC3304600DE453
:1001B600FCFFFEFD22E933E8330470F802046F12F7
:1001C600043A58046009E4CC2481500628500902F8
:1001D6000479284003020476C0E0EB4A7044B980F3
:1001E60006D0E0FB020465EF4E701CBD8008EBFFF5
:1001F600EAFEE9FD80EBE98DF0A4FEE5F002028F50
:10020600E9CDF9EAFEEBFFEF89F0A4FCE5F0CE8933
:10021600F0A42EFFE435F0CD89F0A42DFEE435F0F0
:100226008067EF4E7005BD80D780C3EF8BF0A4AC1E
:10023600F0EE8BF0A42CFCE435F0F8EF8AF0A42C59
:10024600E5F038FCE433CB8DF0A42CFCE5F03BF86C
:10025600EE8AF0A42CFCE5F038F8E433CF89F0A45C
:100266002CFCE5F038CF3400CE89F0A42FFFE5F062
:100276003EFEE433C98DF0A42EFEE5F039CD8AF0BA
:10028600A42FFFE5F03EFEE43DFD33D0E0FB500732
:100296000BBB000F020479EC2CFCEF33FFEE33FEB0
:0602A600ED33FD020451DE
:1002AC00020479EC5D046005E85904700302046FE4
:1002BC0012043A580460F6EC4860F2EC7004FDFE4F
:1002CC00FF22C860DB2481C85009C3986002500625
:1002DC000204769850CAF582E9294B4A7005AB8224
:1002EC0002046575F0007C1A7880C3EF9BEE9AEDE2
:1002FC0099400DC3EF9BFFEE9AFEED99FDE842F09D
:10030C00DC23ACF0D0E0FFD0E0FED0E0FDAB8220EF
:10031C00E7101BEB60BAEC2CFCEF33FFEE33FEED79
:10032C0033FD020451E803F830E705C0F075F00026
:10033C00EF2FFFEE33FEED33FD40B830E7C280AA5D
:10034C0074F8CC6480CCC86480C8F58204604FC358
:10035C00EB9FF5F0EA9E42F0E99D42F0E89C45F0F7
:10036C00603C501DE5825FFFE582D313CB5BCBF481
:10037C002B5582FB50280ABA002409B900200880AA
:10038C001DE5825BFBE582D313CF5FCFF4C3132F44
:10039C005582FF50090EBE00050DBD00010CC3EBCC
:1003AC009FF5F0EA9E42F0E99D42F0E89C45F06032
:0903BC0007CC4820E701B3EC2254
:1003C50075F020800E75F010800575F0087D007EB3
:1003D500007F003392D530D5031204D9EC33401099
:1003E500EF33FFEE33FEED33FDEC33FCD5F0ED22BC
:0E03F500E5F0247EA2D513CC92E7CDCEFF22F8
:10040300EDD2E7CD33EC3392D524814006E4FFFEF1
:10041300FDFC22FCE4CFCECDCC24E0501174FF8050
:10042300EDC3CC13CCCD13CDCE13CECF13CF0470ED
:07043300F030D5DE0204D910
:10043A00E9D2E7C933E833F892D5EDD2E7CD33EC08
:07044A0033FC5002B2D52281
:10045100EC30E7100FBF000C0EBE00080DBD00040C
:100461000BEB6014A2D5EB13FCED92E7FD2274FFB8
:10047100FCFDFEFF22E480F8A2D574FF13FC7D8011
:03048100E480EF25
:0300000002096092
:0C096000787FE4F6D8FD7581670209A7D6
:10048400BC000BBE0029EF8DF084FFADF022E4CC5C
:10049400F875F008EF2FFFEE33FEEC33FCEE9DEC25
:1004A400984005FCEE9DFE0FD5F0E9E4CEFD22ED6B
:1004B400F8F5F0EE8420D21CFEADF075F008EF2FB5
:1004C400FFED33FD4007985006D5F0F222C398FDA6
:0504D4000FD5F0EA2243
:0E04D900C3E49FFFE49EFEE49DFDE49CFC2234
:10096C000204E7E493A3F8E493A34003F68001F2B6
:10097C0008DFF48029E493A3F85407240CC8C3338C
:10098C00C4540F4420C8834004F456800146F6DF5B
:10099C00E4800B0102040810204080900CACE47E33
:1009AC00019360BCA3FF543F30E509541FFEE49350
:1009BC00A360010ECF54C025E060A840B8E493A317
:1009CC00FAE493A3F8E493A3C8C582C8CAC583CA42
:1009DC00F0A3C8C582C8CAC583CADFE9DEE780BEFA
:010CE0000013
:00000001FF
