:04005E00003C96FAD2
:100C8B00016100014F00012C0001640002660000AD
:100C9B00022D0000016900C102C103C10001250042
:100CAB00016000012A0001650002620000012B02B5
:040CBB000221000012
:060CDF0090FEB1F07FFA67
:100CE500AE071FEE600A7E237D08DDFEDEFC80F088
:010CF50022DC
:080D7B0000007E09DEFEDFF836
:010D8300224D
:080D5F0090FEB1F0C291C295B3
:060D670000000000002264
:100CC000EF44C0F5BC7FFFAE071FEE6006E5BC54E5
:0E0CD0002060F453BCDFAFBDEFFEADBEEDFF04
:010CDE0022F3
:100AC100E4FFFEAC2FAD308C098D0AFBEBC3941013
:100AD100748094805046EB25E0242FF8E6F58308D6
:100AE100E6F5822FFFE5833EFEC3E582950AE583A5
:100AF1009509400DEB25E0242FF8E6F50908E6F508
:100B01000AEB25E0242FF8E6F58308E6F582D39D6C
:100B1100E5839C5004AC83AD820B80B0E50A2DFDCA
:100B2100E5093CFCC3EF9DFFEE9CFE7C007D0E02BF
:020B310004843A
:1007F600E560146020146031146044146055146080
:100806007C24056003020890E4120D5F04F0D29385
:1008160075BC8D806390FEB17401F0C291C29312D3
:100826000D67D29575BC8C805E90FEB1E4F0C291E6
:10083600C293120D677404F0D29575BC8B80399003
:10084600FEB17404F0C293C295120D67D29175BCC5
:100856008D803490FEB1E4F0C293C295120D677498
:1008660010F0D2917F0A120CC0E56425E0242FF81F
:10087600A60608A60775BC8C75E69C800D7410123A
:100886000D5FD29375BC8B75E6AC30020375E68CB2
:01089600223F
:1009BE0075E68C75680A90FED6E568F090FED8F064
:1009CE0090FEDAF0E4F5607BC8FA1207F67F641247
:1009DE000CE5E4FDFCC3ED9BEC9A500C7F64120D0C
:1009EE007B0DBD00010C80ED0560E56075F00684A1
:1009FE0085F06005680568D3E56894287480948056
:100A0E00400375682890FED6E568F090FED8F09009
:100A1E00FEDAF01207F67C007D0FAF03AE02120471
:100A2E0084EF2401FFE43EFEC3EB9FFBEA9EFAC374
:080A3E00EB9419EA9400509AB0
:010A4600228D
:10008600C203E4F569F56875E68C90FEB1F090FE62
:10009600D6F090FED8F090FEDAF0C291C293C295E7
:0100A6002237
:100BF700E5611460111460251460392403703D20E9
:100C0700B73A7561012220B70D054FE54F6464704F
:100C17002B752C02801A756102E4F54F2230B70D4F
:100C2700054FE54F640F7014752C018003752C0474
:0D0C37007561032230B705E4F561F54F2229
:100066007592FFE4F5917590C0F5B275B17C75B0E7
:0A0076008175CA10F5C975C8102283
:100D2F0075BC8D75DE2143BA8090FEA87434F02215
:1008970043BA80C290C291C292C293C294C2959049
:1008A700FED0E4F0A37403F090FEDE7418F090FE1F
:1008B700D2E4F0A374FFF090FECCE4F0A3F090FE36
:1008C700C5F0A3F090FEB1F0A3F090FEC4F090FE47
:1008D700C87468F090FED5E4F0A3F090FECCE04435
:1008E70001F090FEB2E0F090FEC97468F090FED778
:1008F700E4F0A3F090FECCE04410F090FEB2E0F0FC
:1009070090FECA7468F090FED9E4F0A3F090FECD93
:10091700E04401F090FEB2E0F090FEDD7480F090CC
:0B092700FEC004F090FEC77401F02237
:0700030075E68C75E73C2255
:100D3F00538E7F5389F0E4F58AF58CC28DD2A922A8
:100CF600AD07AC06C374FF9DFD74FF9CC28CF58CDA
:050D06008D8AD28C2251
:100D0B00538EBF53890FE4F58BF58DC28FD2ABD2C7
:020D1B008E2226
:100D1D00C28EAF8DEFFEAD8BEDFFE4F58DF58BD271
:010D2D008E37
:010D2E0022A2
:100D4F00538EFB75D71175D68E43AF04438E102289
:03000B00020B33B2
:100B3300C0E0C083C082C0D075D000C000C002C076
:100B430003C004C005C006C007C28CE52AFB7A00B7
:100B53006401702C752A023003130560C3E56094A9
:100B6300067480948040037560001207F6AE23E597
:100B7300247802CEC313CE13D8F9FF120CF68008E3
:100B8300EB64024A7002F52AD007D006D005D004E0
:0F0B9300D003D002D000D0D0D082D083D0E032B7
:03001B00020018C8
:03001800D20032E1
:03006300020D6D1E
:0E0D6D00C0E0C0D0D201120BF7D0D0D0E032DF
:0300AB0002074009
:10074000C0E0C0D075D000C000C004C005C006C065
:0107500007A1
:1007510053E6BFE52A60030207E7120D1DE52525D3
:10076100E02450F8A60608A60730000EC200E525D1
:1007710025E02450F876FF0876FF0525E525540786
:10078100F525752300752400E4FFEFC394087480F8
:1007910094805016EF25E02450F8E6FC08E6252465
:1007A100F524EC3523F5230F80E0AE23E52478030F
:1007B100CEC313CE13D8F9F5248E23C39428E52391
:1007C1009400400ED3E5249400E523942050037552
:1007D1006500AE23E5247802CEC313CE13D8F9FF0A
:0607E100120CF6752A015E
:0F07E700D007D006D005D004D000D0D0D0E0325B
:03005B0002000A96
:01000A0032C3
:0300830002000E6A
:0A000E00432B10432B01532BFB3250
:100A470090FED0E4F0A37410F090FED67428F0D294
:100A5700937401120CDF90FED6E4F0C2937F32123A
:100A67000CE590FED0E4F0A3740EF090FED8742845
:100A7700F0D2957404120CDF90FED8E4F0C2957F93
:100A870032120CE590FED0E4F0A3740CF090FEDA7D
:100A97007428F0D29190FEB17410F07FFA120CE531
:100AA70090FEDAE4F0C2917F32120CE590FEB1E4D9
:0A0AB700F090FED0F0A37403F022CB
:10001E0090FED0E4F0A37410F090FED67428F0D2C7
:10002E009390FEB17401F07F64120CE5E4F07F64EE
:10003E00120CE57401F07F64120CE5E4F090FED62C
:0C004E00F0C29390FED0F0A37403F022E7
:100C4400E52C6042E4F562F563E52C24FE6026247D
:100C5400FE602D2403702CE52B30E30512001E806A
:100C6400220569E56964017002D202E569640470D1
:100C740012F569800B120086532BFB432B01800372
:070C8400120086E4F52C22AA
:100BA2000522E52270020521646445217004F521C5
:100BB200F522E52B30E307D297D2CCC29622E52B61
:100BC20030E231E5697004C2978025E56975F01459
:100BD200A4240AFFE435F0FEC3E5229FE5219E50DE
:100BE2000FAE21AF227C007D0A120484EF1392978C
:040BF200D2CCD296F9
:010BF60022DC
:1004E700120066120897120D2F120003120D3F1209
:1004F7000D0B120D4F438F20D2AFE52B20E20302E5
:10050700069B200103020698C201300359E5699052
:10051700005E93FCE41203CF7BCD7ACC79CC783D97
:100527001201A6C004C005C006C007AC68E41203E8
:10053700CF7466FBFAF9783F1201A6D003D002D038
:1005470001D0001200B51204038F6890FED6E5684B
:10055700F090FED8F090FEDAF00565E5656450701E
:100567005D1200868058300244C202E4FFEFC39454
:100577000874809480500DEF25E02450F8E4F608C5
:10058700F60F80E91209BEC202E4F52A53E6BFE579
:100597006030E00575E6AC800375E69CD2037FFA10
:1005A700120CE57FFA120CE5E4F56580117F0A125B
:1005B7000CC0E56425E0242FF8A60608A607E56920
:1005C70070067E0B7FB880047E757F300563E56318
:1005D70070020562B50713E562B5060EE4F562F52C
:1005E70063120086532BFB432B010564E5646410FB
:1005F7006003020695F564120AC1AC06AD07E41262
:1006070003CAE4FBFA79A0783B1201A67B667A66F7
:100617007916783F1202AF8F298E288D278C26E511
:100627002B540870367FCD7ECC7DCC7C40AB29AA7D
:1006370028A927A82612034C504F052EE52E700235
:10064700052D6440452D7046F52DF52EC2961200F6
:1006570086432B08E4F566F56780337FCD7ECC7D36
:10066700CC7C40AB29AA28A927A82612034C6019DD
:100677004017052EE52E7002052D6420452D700EBE
:10068700F52DF52E532BF78005E4F52DF52E120BDE
:10069700A2120C44E52B30E02DD297D2CCD2962073
:1006A700B70F7FC8120CE57FC8120CE57FC8120C84
:1006B700E5C2B1538FBFE4F5BCF5E653AFFB7587D1
:0E06C70002000075C760E52B20E1030205016B
:1006D500E4F50820B71F7FC8120CE5C2CC7FC8120D
:1006E5000CE5D2CC0508D3E50894037480948040CA
:1006F500E2C29780DED3E508940374809480402F8E
:10070500532BFE432B0220B007C2B1432B1080228E
:1007150075E68C75BC80438F40D2B143AF04C29758
:10072500E4F561F54FF52C120A47432B0480065377
:080735002BFD432B01532BFDAA
:03073D00020501B1
:1000AE0002046FE86480F8E933E83360110460F00D
:1000BE00ED33EC337009E8FCE9FDEAFEEBFF2204B8
:1000CE0060DED3EB9FEA9EE99DE8C2E78CF0C2F7B3
:1000DE0095F0400CE8CCF8E9CDF9EACEFAEBCFFB7F
:1000EE0012043A85D0F05804700320D5B3E804709A
:1000FE00075002B2D502047992D5EC0460F7E4CC35
:10010E00C0E0C398F8603B94186008400DD0E0FB47
:10011E00020451E4FBFAC9FC8028E830E406E4C985
:10012E00FBE4CAFCE830E305E4C9CACBFCE854079B
:10013E006010F8C3E913F9EA13FAEB13FBEC13FCA6
:10014E00D8F130F52FC3E49CFCEF9BFFEE9AFEED49
:10015E0099FDD0E0FBEF4E4D4C701222DB030204F2
:10016E0076EC2CFCEF33FFEE33FEED33FDED30E796
:10017E00EB020451EF2BFFEE3AFEED39FDD0E0FB22
:10018E0050130BBB0003020479ED13FDEE13FEEFCB
:08019E0013FFEC13FC020451F5
:1001A600EC4D6011E8497017ED33EC3304600DE453
:1001B600FCFFFEFD22E933E8330470F802046F12F7
:1001C600043A58046009E4CC2481500628500902F8
:1001D6000479284003020476C0E0EB4A7044B980F3
:1001E60006D0E0FB020465EF4E701CBD8008EBFFF5
:1001F600EAFEE9FD80EBE98DF0A4FEE5F002028F50
:10020600E9CDF9EAFEEBFFEF89F0A4FCE5F0CE8933
:10021600F0A42EFFE435F0CD89F0A42DFEE435F0F0
:100226008067EF4E7005BD80D780C3EF8BF0A4AC1E
:10023600F0EE8BF0A42CFCE435F0F8EF8AF0A42C59
:10024600E5F038FCE433CB8DF0A42CFCE5F03BF86C
:10025600EE8AF0A42CFCE5F038F8E433CF89F0A45C
:100266002CFCE5F038CF3400CE89F0A42FFFE5F062
:100276003EFEE433C98DF0A42EFEE5F039CD8AF0BA
:10028600A42FFFE5F03EFEE43DFD33D0E0FB500732
:100296000BBB000F020479EC2CFCEF33FFEE33FEB0
:0602A600ED33FD020451DE
:1002AC00020479EC5D046005E85904700302046FE4
:1002BC0012043A580460F6EC4860F2EC7004FDFE4F
:1002CC00FF22C860DB2481C85009C3986002500625
:1002DC000204769850CAF582E9294B4A7005AB8224
:1002EC0002046575F0007C1A7880C3EF9BEE9AEDE2
:1002FC0099400DC3EF9BFFEE9AFEED99FDE842F09D
:10030C00DC23ACF0D0E0FFD0E0FED0E0FDAB8220EF
:10031C00E7101BEB60BAEC2CFCEF33FFEE33FEED79
:10032C0033FD020451E803F830E705C0F075F00026
:10033C00EF2FFFEE33FEED33FD40B830E7C280AA5D
:10034C0074F8CC6480CCC86480C8F58204604FC358
:10035C00EB9FF5F0EA9E42F0E99D42F0E89C45F0F7
:10036C00603C501DE5825FFFE582D313CB5BCBF481
:10037C002B5582FB50280ABA002409B900200880AA
:10038C001DE5825BFBE582D313CF5FCFF4C3132F44
:10039C005582FF50090EBE00050DBD00010CC3EBCC
:1003AC009FF5F0EA9E42F0E99D42F0E89C45F06032
:0903BC0007CC4820E701B3EC2254
:1003C50075F020800E75F010800575F0087D007EB3
:1003D500007F003392D530D5031204D9EC33401099
:1003E500EF33FFEE33FEED33FDEC33FCD5F0ED22BC
:0E03F500E5F0247EA2D513CC92E7CDCEFF22F8
:10040300EDD2E7CD33EC3392D524814006E4FFFEF1
:10041300FDFC22FCE4CFCECDCC24E0501174FF8050
:10042300EDC3CC13CCCD13CDCE13CECF13CF0470ED
:07043300F030D5DE0204D910
:10043A00E9D2E7C933E833F892D5EDD2E7CD33EC08
:07044A0033FC5002B2D52281
:10045100EC30E7100FBF000C0EBE00080DBD00040C
:100461000BEB6014A2D5EB13FCED92E7FD2274FFB8
:10047100FCFDFEFF22E480F8A2D574FF13FC7D8011
:03048100E480EF25
:03000000020932C0
:0C093200787FE4F6D8FD75816902097930
:10048400BC000BBE0029EF8DF084FFADF022E4CC5C
:10049400F875F008EF2FFFEE33FEEC33FCEE9DEC25
:1004A400984005FCEE9DFE0FD5F0E9E4CEFD22ED6B
:1004B400F8F5F0EE8420D21CFEADF075F008EF2FB5
:1004C400FFED33FD4007985006D5F0F222C398FDA6
:0504D4000FD5F0EA2243
:0E04D900C3E49FFFE49EFEE49DFDE49CFC2234
:10093E000204E7E493A3F8E493A34003F68001F2E4
:10094E0008DFF48029E493A3F85407240CC8C333BA
:10095E00C4540F4420C8834004F456800146F6DF89
:10096E00E4800B0102040810204080900C8BE47E82
:10097E00019360BCA3FF543F30E509541FFEE4937E
:10098E00A360010ECF54C025E060A840B8E493A345
:10099E00FAE493A3F8E493A3C8C582C8CAC583CA70
:1009AE00F0A3C8C582C8CAC583CADFE9DEE780BE28
:010CBF000034
:00000001FF
